:020000040800F2
:100000000050002021170008B5160008B716000898
:1000100000000000000000000000000000000000E0
:10002000000000000000000000000000B9160008F9
:100030000000000000000000BB160008BD1600080C
:100040007117000871170008711700087117000870
:100050007117000871170008711700087117000860
:100060007117000871170008711700087117000850
:100070007117000871170008711700087117000840
:1000800071170008711700087117000800000000C0
:100090007117000871170008711700087117000820
:1000A0007117000871170008711700087117000810
:1000B0007117000871170008711700087117000800
:1000C00010B5064C2378002B07D1054B002B02D02E
:1000D000044800E000BF0123237010BD6800002029
:1000E00000000000A0260008044B10B5002B03D030
:1000F0000349044800E000BF10BDC04600000000F6
:100100006C000020A026000802B47146490849008E
:10011000095C49008E4402BC7047C04603B4714676
:10012000490840004900095E49008E4403BC7047FD
:10013000002243088B4274D303098B425FD3030A26
:100140008B4244D3030B8B4228D3030C8B420DD339
:10015000FF22090212BA030C8B4202D312120902C7
:1001600065D0030B8B4219D300E0090AC30B8B4205
:1001700001D3CB03C01A5241830B8B4201D38B03B3
:10018000C01A5241430B8B4201D34B03C01A524158
:10019000030B8B4201D30B03C01A5241C30A8B429B
:1001A00001D3CB02C01A5241830A8B4201D38B0286
:1001B000C01A5241430A8B4201D34B02C01A52412A
:1001C000030A8B4201D30B02C01A5241CDD2C3099C
:1001D0008B4201D3CB01C01A524183098B4201D318
:1001E0008B01C01A524143098B4201D34B01C01A03
:1001F000524103098B4201D30B01C01A5241C3087B
:100200008B4201D3CB00C01A524183088B4201D3E9
:100210008B00C01A524143088B4201D34B00C01AD5
:100220005241411A00D20146524110467047FFE741
:1002300001B5002000F006F802BDC0460029F7D045
:1002400076E770477047C046002B11D1002A0FD1C6
:10025000002900D1002802D00021C943081C07B49E
:10026000024802A14018029003BDC046D9FFFFFF1B
:1002700003B4684601B5029800F006F8019B9E465B
:1002800002B00CBC7047C046F0B557464E464546D6
:10029000DE46E0B5040083B00D00924699468B42DD
:1002A0002FD82CD04946504600F0AEF82900060061
:1002B000200000F0A9F8331A9846203B9B4600D551
:1002C00074E053465A4693401F00534642469340BB
:1002D0001E00AF4229D826D05B46A41BBD41002B8F
:1002E00000DA79E0002200230092019301235A46AC
:1002F00093400193012342469340009319E08242C8
:10030000D0D900220023009201930C9B002B01D036
:100310001C605D600098019903B03CBC9046994612
:10032000A246AB46F0BDA342D6D9002200230092DC
:1003300001934346002BE8D0FB0772081A43464658
:100340007B080EE0AB4201D1A2420CD8A41A9D4119
:10035000012024196D410021013E24184D41002E39
:1003600006D0AB42EED9013E24196D41002EF8D1E2
:100370005B460098019900196941002B22DB2B0094
:100380005A46D3402A004446E2401C005B46150012
:10039000002B2CDB26009E40330026004746BE4043
:1003A0003200801A994100900191AEE74246202325
:1003B0009B1A5246DA40414613004A468A401700CB
:1003C0001F4382E7424620239B1A2A0046469A4052
:1003D0002300F3401343D5E74246202300219B1A14
:1003E0000022009101920122DA40019282E7424606
:1003F000202326009B1ADE402F00B4469740664615
:100400003B003343C9E7C04610B5002903D100F0D3
:1004100007F8203002E0081C00F002F810BDC046CA
:100420001C2101231B04984201D3000C10391B0A24
:10043000984201D3000A08391B09984201D30009E8
:10044000043902A2105C40187047C046040302023F
:10045000010101010000000000000000FA210A4B28
:1004600070B5890005001868FFF762FE00F070F8AB
:1004700004000120002C05D102382200290000F0E0
:1004800037F8200070BDC046000000204023084A15
:1004900010B5116800200B431360FFF7DFFF041E47
:1004A00003D101F0CBF8200010BD0124FBE7C046CA
:1004B00000200240024A1368013313607047C046AF
:1004C00090000020014B18687047C0469000002043
:1004D00070B50400FFF7F6FF631C5A1E9341050038
:1004E000E418FFF7EFFF401B8442FAD870BD00000C
:1004F00070B58901002814DA0F23C0B20340083B0D
:10050000114A9B089B009B18032210409040FC322C
:100510001500114085408140DC69AC432143D9611D
:1005200070BD032583082840A840FC352E00074AEB
:100530009B009B18C02286402940814092009C5815
:10054000B44321439950EBE700ED00E000E100E007
:10055000094A431E012093420DD8C021074A08488A
:100560005360036A09061B021B0A0B430362002047
:100570000723906013607047FFFFFF0010E000E06A
:1005800000ED00E0F0B5554A0B688218541EA241F8
:1005900085B00193002305320392019ADA4001D11C
:1005A00005B0F0BD01259D40019A2A40009200D17E
:1005B00091E04A6894461022644694432200013C2C
:1005C000022A1FD107240F271C40A400A740DA08E5
:1005D00092008218166ABE430F69A7403E43166216
:1005E00003245E00B4408268A243CC68B440224336
:1005F00082606246D206D20F9A404468AC432243DE
:10060000426001E0012CEBD9032634005D00AC40D0
:100610006246E4433240AA40076827403A430260FA
:10062000C26814408A68AA4014436246C460D2007B
:1006300051D501252A4C0F27626B2A431D003540F6
:10064000AD00AF406263274A9C08A400A418A268CA
:10065000BA43A0270292FF050022B84210D0224FD1
:100660000132B8420CD0214F0132B84208D0204F9D
:100670003200B84204D01F4E0132B04200D0039A7B
:10068000AA406746029D2A43A2601B4A009C166846
:10069000009DE4433543FF0301D435002540674600
:1006A00015605668009D3543BF0301D435002540D1
:1006B000674655609668009D3543FF0201D43500BA
:1006C000254067469560D568009E2E43BF0201D441
:1006D00025402E00D66001335FE7C04600E4FFAF3F
:1006E00000100240000001400004005000080050CB
:1006F000000C005000100050000401400C22184B68
:1007000010B5D9680A40082A26D00C2A06D0042A37
:100710001AD11B68DB0621D4124810BD8A02124888
:10072000120F825C0902D868890F0131C00304D519
:100730000E485043FFF7FCFCEFE71B68DB0601D5D2
:100740000B48F6E70748F4E780205B6800021B04CB
:100750005B0F01339840E0E70448DEE70448DCE73C
:10076000001002400024F400F526000800127A0070
:1007700000093D00F0B5050087B0002802D1012036
:1007800007B0F0BD0C23C24CE668E2681E4080232F
:100790005B021A4001920268D20741D42B689B0782
:1007A00000D587E02B68DB0628D5002E00D0E1E0DD
:1007B00023689B0502D5EB69002BE0D06268B54940
:1007C0006B6A0A401A43626061682A6A0902090A70
:1007D00012060A43626080225B0B013312029A40C8
:1007E0001300E16800200A06AB49120F8A5CD3406F
:1007F000AA4A1360FFF732FE0028C1D12B681B07FD
:1008000000D5EEE02B685B0700D510E12B689B0656
:1008100000D595E1AB6A002B00D0C4E10020AFE722
:10082000082E04D00C2E09D1019A002A06D0236884
:100830009B03B3D56B68002BB0D1A0E76A689A42DE
:1008400011D1226813432360FFF73CFE070080228A
:10085000236892021342A1D1FFF734FEC01B642823
:10086000F5D903208CE7A021C9028A4205D1802254
:100870002168D2020A432260E3E7216888480140E8
:10088000216021680B400593059B864923680B4036
:100890002360002AD8D1FFF715FE070080222368C5
:1008A0009202134200D179E7FFF70CFEC01B6428C7
:1008B000F4D9D6E72022EB68134203D02168934392
:1008C00011432160042E04D00C2E25D1019A002A58
:1008D00022D12268520702D5002B00D14FE7616870
:1008E0002A697148120201400A43092162602268A4
:1008F0008A4313432360FFF701FFE368664A1B0640
:100900001B0FD35CD840654B18600020FFF7A6FD95
:10091000002800D146E733E7002B19D009212268CF
:100920008A4313432360FFF7CDFD070004222368A9
:10093000134207D062682B695B491B020A401343CC
:1009400063602FE7FFF7BEFDC01B0228EED988E7E2
:100950000122236893432360FFF7B4FD07000422BC
:100960002368134200D11DE7FFF7ACFDC01B02282E
:10097000F5D976E7EB69002B20D0802322685B0055
:1009800013432360FFF79EFD070080222368920037
:1009900013420DD063683F4A13406A6A1343636091
:1009A00062682B6A12021B06120A1343636025E772
:1009B000FFF788FDC01B0228E7D952E723683B4AAE
:1009C00013402360FFF77EFD07008022236892001A
:1009D000134200D112E7FFF775FDC01B0228F4D9BE
:1009E0003FE76A690123002A10D0226D1343236573
:1009F000FFF768FD07000222236D134200D001E7D4
:100A0000FFF760FDC01B0228F5D92AE7226D9A4343
:100A10002265FFF757FD07000222236D134200D124
:100A2000F0E6FFF74FFDC01B0228F5D919E7802338
:100A30000021A26B5B0501911A4204D1A26B134302
:100A4000A363012301938022194F52003B68134294
:100A500008D08022AB68520093422BD1226D134301
:100A600023654CE080223B68520013433B60FFF754
:100A700029FD80235B00029003933B68039A134295
:100A8000E7D1FFF71FFD029BC01A6428F5D9E8E6FD
:100A900000100240FF1FFFFFDD26000800000020BD
:100AA000FFFFFEFFFFFFFBFFFFE0FFFFFFFEFFFF7B
:100AB00000700040002B16D1236D6A4A1340236555
:100AC000236D694A13402365FFF7FCFC0700802271
:100AD000236D920013422AD0FFF7F4FC634BC01B36
:100AE0009842F4D9BDE6A021C9008B420BD18023E6
:100AF000216DDB000B432365236D1A432265FFF74D
:100B0000E1FC07000EE0236D564A13402365236D78
:100B1000554A1340A4E7FFF7D5FC544BC01B98423D
:100B200000D99EE68022236D92001342F3D0019BF0
:100B3000012B00D06AE6A36B4D4A1340A36365E620
:100B4000A96901234B4A002918D0A1681943A16063
:100B5000616B0B4363638023116A9B010B43136238
:100B6000FFF7B0FC07000222A368134200D051E651
:100B7000FFF7A8FCC01B0228F5D972E6A1689943CB
:100B8000A160136A3C490B401362FFF79BFC07000E
:100B90000222A368134200D13CE6FFF793FCC01B7E
:100BA0000228F5D95DE60C2E43D0344A022B2ED113
:100BB0002368802613402360FFF784FC0700B604F7
:100BC000236833421DD1296BEB6AE2680B432C4941
:100BD0000A4013436A6B80251343E3608023226835
:100BE0005B0413432360FFF76DFC0600AD0423682C
:100BF0002B4200D012E6FFF765FC801B0228F6D9D5
:100C00002FE6FFF75FFCC01B0228D9D929E623682D
:100C1000802513402360FFF755FC0600AD042368D0
:100C20002B4200D1FAE5FFF74DFC801B0228F6D9D4
:100C300017E68022E368E96A52021A4001208A42DC
:100C400000D09DE5F022296B92031A408A4200D021
:100C500096E5C02000040340686B181A431E9841B3
:100C6000C0B28DE5FFFEFFFFFFFBFFFF8813000012
:100C7000FFFFFFEF00000140FFDFFFFFFFFFFFFE70
:100C8000FFFF02FFF7B5061E019101D10120FEBD55
:100C90000122514C0199236813408B4227D33268BB
:100CA00093072FD4D30735D40123226801991A4022
:100CB000914200D281E03268484C530700D584E06D
:100CC000130706D5E26833694549DB000A40134340
:100CD000E360FFF713FDE368424A1B061B0FD35C7A
:100CE000D840414B18600020FFF7B8FBCFE72368DE
:100CF000019993430B43236023681340019A9A425E
:100D0000C4D1CCE7F0203549CB688343B0680343B6
:100D1000CB60C7E7314D72682B68022A19D19B035B
:100D2000B4D50321EB688B431343EB60FFF7CAFB99
:100D300073680700022B19D10C22EB681340082BB3
:100D4000B2D0FFF7BFFB294BC01B9842F4D9032058
:100D50009DE7032A02D19B01E3D497E7012A02D140
:100D60005B07DED492E79B05DBD48FE7032B0BD127
:100D70000C22EB681340934296D0FFF7A3FB1B4B6A
:100D8000C01B9842F4D9E2E7012B10D00C22EB688B
:100D9000134289D0FFF796FB144BC01B9842F5D93C
:100DA000D5E7FFF78FFB114BC01B9842CFD80C2221
:100DB000EB681340042BF4D176E722689A43226053
:100DC00022681A4200D061E775E7E36808490B40E2
:100DD000F1680B43E36073E700200240001002401B
:100DE000FFC7FFFFDD260008000000208813000079
:100DF000FFF8FFFF044B054ADB685B055B0FD35C24
:100E0000034A1068D840704700100240ED260008E1
:100E100000000020044B054ADB689B045B0FD35C99
:100E2000034A1068D840704700100240ED260008C1
:100E3000000000208223F7B502681B0105001A425A
:100E400048D080230021654C5B05A26B00911A42BB
:100E500004D1A26B1343A363012300938027604E48
:100E60007F0033683B4277D06968C022080023685E
:100E7000920313401040834203D1A868024093427A
:100E800009D0C0230A009B021A409A4203D123686A
:100E900001209B0371D4C022236D9202134000D025
:100EA0006CE06968C0230A009B021A409A4207D18D
:100EB00023684C480340C020800301400B4323605B
:100EC000236D1A43009B2265012B03D1A36B464A75
:100ED0001340A3632B68DA0706D503203F49CA6C89
:100EE0008243E8680243CA649A0706D50C203B494E
:100EF000CA6C824328690243CA645A0706D5374937
:100F00003A48CA6C024068690243CA641A0706D5A7
:100F100032493748CA6C0240A8690243CA64DA05FC
:100F200006D52E493348CA6C0240E8690243CA64B8
:100F30005A0606D529493048CA6C0240686A0243FD
:100F4000CA6400201B0618D5244A2C49D36C0B40D8
:100F5000296A0B43D36410E033683B433360FFF7E7
:100F6000B1FA019033683B4200D07DE7FFF7AAFA5F
:100F7000019BC01A6428F5D90320FEBD11408B42A5
:100F800002D02968890608D4A9680A40934200D192
:100F900087E72B681B0500D483E78022216D206D35
:100FA000120302432265226D124B15480B4002408A
:100FB00022652365CB0500D473E7FFF783FA80270A
:100FC0000600BF00236D3B4200D06AE7FFF77AFAC4
:100FD0000C4B801B9842F5D9CEE7C046001002406A
:100FE00000700040FFFFCFFFFFFFFFEFFFF3FFFFA9
:100FF000FFCFFFFFFFFFFCFFFFFFFFFBFFFFF3FF44
:10100000FFFFF7FF88130000F8B504002569A26808
:1010100003682A436569C1692A431868814D0A43F8
:10102000284002431A605A687F48804D0240E068B9
:1010300002435A60A069AB4201D0226A10439A6809
:101040007B4E324002439A607A4A934213D1032284
:10105000794BDB6C1340794AD05C80231B029942A8
:1010600000D1D1E0082826D8FFF74EF8C096992580
:10107000B4252525B700724A934205D10C226E4B48
:10108000DB6C13406F4AE7E76F4A934200D1A9E057
:101090006E4A934200D1A5E0AB4200D0ADE0C02142
:1010A0008020654A0901D36CC0000B40834238D0D0
:1010B00003D8002B0AD001250DE0802000018342D7
:1010C0000ED08B42F7D1802000020DE0FFF792FE98
:1010D0000025A84208D10023280023666366F8BDD6
:1010E0001368DB0620D55A48032263685A438242BC
:1010F000E1D81A038242DED30027020E01025E0805
:1011000089197A41080011001A003B00FFF79CF88A
:10111000504BC218504B9A42CDD823683D00D8603E
:10112000D9E7FFF7EBFAD3E74C48DDE7FFF762FEBC
:10113000636840005B08C01861680BE0FFF76AFE57
:10114000F6E710253C4B61681A684808154006D040
:10115000434BC018FEF7ECFF002583B204E0414B7F
:10116000C018FEF7E5FF83B219003F4810398142ED
:10117000A1D80F2118001B0788435B0F2168034388
:10118000CB60A8E7FFF7BAFAD2E763685808802374
:101190005B02D0E70023E7E7FFF73CFE28E01025DD
:1011A000254B61681A684808154006D0284BC018BE
:1011B000FEF7BEFF002583B204E0284BC018FEF7FF
:1011C000B7FF83B2190028481039814200D972E76D
:1011D0002168D5E7FFF792FA0AE063685808802390
:1011E0001B0207E080231B0299429FD0FFF702FEFB
:1011F00063685B08C0186168DAE7802301251B0279
:101200009942C7D00023DDE7082800D953E7FEF74D
:1012100085FF8DFF95FF98FF52FFB9FF52FF52FFE8
:1012200052FFBCFFF369FFEFFFCFFFFF0048004014
:10123000FFF4FFFF0038014000100240B82600080C
:1012400000440040BC260008004C00400050004014
:1012500000093D0000FDFFFFFFFC0F000024F4002B
:1012600000127A000048E801EFFF0000436A30B541
:10127000DA0706D50168284C4A682240846A22436E
:101280004A609A0706D50168244C4A682240C46A1D
:1012900022434A605A0706D50168214C4A68224019
:1012A000046B22434A601A0706D501681D4C4A6840
:1012B0002240446B22434A60DA0606D501681A4C84
:1012C0008A682240846B22438A609A0606D50168A8
:1012D000164C8A682240C46B22438A605A0610D595
:1012E0000168134D4A68046C2A4022434A608022F8
:1012F0005203944205D14A680E4C2240446C22436A
:101300004A601B0606D502680B4953680B40816C86
:101310000B43536030BDC046FFFFFDFFFFFFFEFFE4
:10132000FFFFFBFFFF7FFFFFFFEFFFFFFFDFFFFF81
:10133000FFFFEFFFFFFF9FFFFFFFF7FFF8B5040080
:101340000E0015001F002268D36933409B1B5942D1
:101350004B41AB4201D000201BE0069B0133F3D090
:10136000FFF7B0F8069BC01B834201D3002BEAD1E4
:10137000236808491A6803200A401A609A68A33152
:10138000FF318A439A6020236367A3670023703488
:101390002370F8BD5FFEFFFFF0B587B00593436F84
:1013A00004000D0017000220202B49D1013800292C
:1013B00046D0002A44D08023A2685B019A4204D11F
:1013C0002369002B01D101423AD1230070331A78EE
:1013D0000220012A34D0012200261A702123E66758
:1013E0006367FFF76FF8230050331F8002330393C6
:1013F0001F808023A26804905B019A4204D1236974
:10140000B34201D12E001D00230052331A88059BE0
:1014100092B20093049B002A0AD140212000FFF7DA
:101420008DFF00280BD1202370346360207007E00B
:10143000002280212000FFF781FF002802D0032036
:1014400007B0F0BD2268002D0BD133880236DB05D2
:10145000DB0D9362039B039A1B88013B9BB21380B5
:10146000D2E72B7801359362F4E7000073B50026CC
:101470000400C667FFF726F8236805001B681B07F2
:1014800015D423681B685B070AD580210E4B002208
:101490000093C9032B002000FFF750FF002811D153
:1014A000202300206367A367703420700BE0802145
:1014B000054B32000093890303002000FFF73EFF35
:1014C0000028DED0032076BDFFFFFF0110B5041E0B
:1014D00001D1012010BD436F002B04D102007032F6
:1014E000137000F0B9F824230121226863671368A0
:1014F00020008B431360FFF787FD0128E9D0636A62
:10150000002B02D02000FFF7B1FE236807495A687C
:1015100020000A402A215A609A688A439A60012270
:1015200019680A431A60FFF7A1FFD3E7FFB7FFFF6F
:10153000FA2310B59B001400044892B2FFF72CFF69
:101540004342584140420440200010BD9400002016
:1015500070B59EB03822002110A800F02FF9142297
:10156000002101A800F02AF92822002106A800F095
:1015700025F91649164A0B6800241A4080231B01DE
:1015800013430B60102314938023DB021C938023EE
:1015900002250126DB0310A81D93109513961A95BA
:1015A0001B94FFF7E7F80F233100019301A80C3BD0
:1015B0000293039404940594FFF764FB06A8069530
:1015C0000A94FFF737FC1EB070BDC04600700040A3
:1015D000FFE7FFFF13B5FEF759FFFFF7B9FF012043
:1015E000124AFA24D16AA4000143D162D36A0C22C0
:1015F000034001930E48019B0E4B4261036096230A
:101600009B01436000238360C36003618361C36106
:1016100003624362FFF75AFFFEF754FF01000648DA
:1016200000F0D4F82000FEF753FFF5E70010024069
:101630009400002000440040C92600080122054B08
:10164000596B0A435A638022996B52050A439A6385
:101650007047C0460010024010B5040086B0142246
:10166000002101A800F0AAF8104B22689A421AD172
:1016700080220F4B9202996BA0200A4301219A63AA
:10168000DA6AC0050A43DA62DB6A0B400093009B0A
:101690000C2301930A3B02935B1804935B1801A986
:1016A0000593FEF76FFF06B010BDC0460044004032
:1016B000001002407047FEE77047704710B5FEF714
:1016C000F9FE10BD8022104B520019680A431A60BF
:1016D000DA680E490A40DA601A680D490A400121A9
:1016E0001A609A688A439A601A680A490A401A601E
:1016F000DA6809490A40DA6000221A618022074B41
:1017000012059A607047C046001002400C40FF88E6
:10171000F6FFF6FEFFFFFBFFFFFF02FF00ED00E01C
:101720000D488546002103E00C4B5B5843500431C3
:101730000B480C4B42189A42F6D30B4A02E00023A6
:1017400013600432094B9A42F9D3FFF7BBFF00F054
:1017500011F8FFF73FFFFEE700500020A827000820
:101760000000002068000020680000201801002010
:10177000FEE7000070B500260C4D0D4C641BA41054
:10178000A64209D1002600F08BFF0A4D0A4C641BCB
:10179000A410A64205D170BDB300EB58984701369E
:1017A000EEE7B300EB5898470136F2E7A0270008B0
:1017B000A0270008A0270008A4270008030082181B
:1017C000934200D1704719700133F9E70FB40B4B06
:1017D00013B51C68002C05D0A369002B02D1200092
:1017E00000F050F805AB049AA1682000019300F0C6
:1017F00065F916BC08BC04B01847C04604000020B8
:1018000010B5024900F0B2F810BDC046B923000877
:10181000002310B504000360436083608181436648
:10182000C281036143618361190008225C30FFF7C4
:10183000C5FF054B24626362044BA362044BE36261
:10184000044B236310BDC046292000085120000826
:1018500089200008B520000870B568254A1E554348
:101860000E002900743100F0A3F8041E08D00021F6
:101870002A00016046600C30A0606832FFF79EFFCE
:10188000200070BD836913B50400002B28D1836448
:10189000C3640365134B144A1B6882620193984228
:1018A00001D101238361200000F020F86060200056
:1018B00000F01CF8A060200000F018F80022E060A2
:1018C00004216068FFF7A4FF01220921A068FFF747
:1018D0009FFF02221221E068FFF79AFF0123A36114
:1018E00013BDC0466027000801180008F8B51E4B5C
:1018F00007001E68B369002B02D13000FFF7C2FF5A
:101900004836B4687368013B04D53368002B07D0B0
:101910003668F6E70C22A55E002D0DD06834F2E79C
:1019200004213800FFF798FF30600028F0D10C2325
:1019300004003B602000F8BD012320005B42E381EE
:101940000233A38165662560A560656025616561D8
:10195000A561082229005C30FFF730FF6563A563AD
:10196000A564E564E6E7C04660270008F7B5040013
:101970000700002601914834002C01D13000FEBD43
:101980006368A5680093009B013B009301D5246820
:10199000F2E7AB89012B08D90E22AB5E013304D0EC
:1019A00029003800019B984706436835EBE70000A3
:1019B000032370B5CD1C9D43083506000C2D1ED2A7
:1019C0000C25A9421DD8300000F0ADFD254A146851
:1019D0002100002919D1244C2368002B03D13000A9
:1019E00000F010FB20602900300000F00BFB431CCE
:1019F0002CD10C233000336000F096FD03E0002D65
:101A0000DFDA0C233360002070BD0B685B1B1AD437
:101A10000B2B03D90B60CC18256003E08C420ED150
:101A200063681360300000F07FFD200007220B3058
:101A3000231D9043C31AE7D05A42E250E4E74B68B3
:101A400063600C00EEE70C004968C2E70323C41C86
:101A50009C43A042E0D0211A300000F0D3FA431C8E
:101A6000DAD1C6E78400002088000020936810B512
:101A7000013B9360002B05DA9469A34208DBCBB2EB
:101A80000A2B05D01368581C10601970C8B210BD1D
:101A900000F016FBFBE7F8B506000F001400D518A0
:101AA000AC4201D1002007E021783A003000FFF776
:101AB000DDFF0134431CF3D1F8BD0000F0B59FB049
:101AC00006000F0014000593002804D08369002B42
:101AD00001D1FFF7D7FE7F4B9F425CD17768BB896E
:101AE0001B0762D53B69002B5FD0002306AD6B61FD
:101AF00020336B761033AB760294029C2378002B54
:101B00005DD1029BE31A04930DD0049B029A390025
:101B10003000FFF7C0FF431C00D1CCE06A69049B92
:101B2000944663446B612378002B00D1C3E001220B
:101B3000002352426A6002A95432521801342B60C9
:101B4000EB60AB601370AB6521780522624800F052
:101B5000DFFC631C9C46002835D12968CB0604D5E0
:101B6000532302AA20309B1818700B0704D5532367
:101B70002B2002AA9B18187023782A2B2CD0002027
:101B80000A21099B2278303A092A00D86BE0002804
:101B90002AD0099328E0514B9F4201D1B7689EE7B4
:101BA0004F4B9F429BD1F76899E73900300000F016
:101BB000F1FA002899D0012040421FB0F0BD252B3A
:101BC0009FD001349AE7444B2968C01A012383400F
:101BD0000B432B606446B7E7059B181D1B680590F7
:101BE000002B3ADB0993644623782E2B0BD16378C4
:101BF000621C2A2B3FD1059B02341A1D1B680592DB
:101C0000002B35DB079321780322364800F080FC57
:101C1000002807D0334B2A68C01A4023834013435F
:101C20002B6001342178631C06222F480293297609
:101C300000F06EFC002844D02C4B002B2FD12968DB
:101C4000059B0722C90528D59B18934308330593A4
:101C50006B69039A9B186B614FE75B42EB60022351
:101C60000B432B60BFE74B4301349B18012089E7EE
:101C700001235B42C6E7002314000A201A006B60B0
:101C800021783039092903D9002BBCD00792BAE753
:101C90004243013452180123F2E70733D5E705AB7D
:101CA00000933A00124B2900300000E000BF03907F
:101CB000039B0133CCD1BB895B0600D57BE70B9836
:101CC0007BE705AB00933A00094B2900300000F098
:101CD0007FF8ECE720270008642700084027000869
:101CE000002700086A2700086E270008000000008F
:101CF000971A0008F7B5150001938A680B690090E0
:101D00000C00934200DA130022002B604332127859
:101D1000002A01D001332B6023689B0602D52B6873
:101D200002332B60062723681F4027D0230043334C
:101D30001B785A1E93412268920630D422000199E2
:101D400043320098089EB047431C25D006232068E4
:101D50002A68E16803400025042B03D18D1AEB4368
:101D6000DB171D40A3682269934201DD9B1AED1821
:101D70000027BD4220D1002010E00137E3682A6827
:101D80009B1A9F42D2DA220001231932019900984E
:101D9000089EB047431CF0D101204042FEBD3020D8
:101DA000E1184331087021005A1C45310978A21806
:101DB000433202331170C1E7220001231A32019924
:101DC0000098089EB047431CE6D00137D1E70000D9
:101DD000F0B58BB006920A00433207930590049247
:101DE0000A7E0C00109B6E2A00D18FE017D8632A60
:101DF0002CD008D8002A00D199E0582A54D02600C7
:101E00004236327029E0642A01D0692AF7D121686C
:101E10001A68080623D5111D1960156825E0732A74
:101E200000D188E008D86F2A29D0702AE7D1202273
:101E300009680A43226003E0752A20D0782ADED19F
:101E400022007821453211706C4A30E00E001A6889
:101E50004236111D196013683370012379E0490679
:101E6000D9D5111D19600023D55E002D03DA2D236D
:101E7000049A6D421370624B0A2703932FE0206887
:101E80001968050603D5081D18600D6805E04006B1
:101E9000F9D50D68081D1860ADB2594B082703939A
:101EA0006F2A18D00A2716E045310A70544A039267
:101EB0001A682168101D18601568080622D5CB071E
:101EC00002D52023194321601027002D03D12023A0
:101ED00022689A4322602300002243331A70636809
:101EE000A360002B5CDB0422216891432160002D5C
:101EF00058D1049E002B64D02600039B42361B78E9
:101F000033705EE04806DAD5ADB2D8E709681A68E2
:101F1000080605D5111D1960136862691A6006E08C
:101F20004906F7D5111D19601368A28A1A8000238B
:101F3000049E236154E01A68111D1960166800217F
:101F40006268300000F0E4FA002801D0801B606075
:101F5000636823610023049A137041E0236932000F
:101F600006990598079DA847431C43D02368002580
:101F70009B070FD4099BE06898423DDA18003BE0CC
:101F800022000123193206990598079EB047431C89
:101F900030D00135E368099A9B1A9D42F0DBE9E7EE
:101FA000002DA9D0049E28003900FEF747F9039BB5
:101FB000013E5B5C280033703900FEF7B9F8051E5E
:101FC000F1D1082F09D12368DB0706D563682269A0
:101FD000934202DC3023013E3370049B9B1B236140
:101FE000079B09AA00932100069B0598FFF782FE34
:101FF000431CB3D1012040420BB0F0BD862700083E
:1020000075270008002370B5064C05000800236002
:1020100000F036FB431C03D12368002B00D02B605B
:1020200070BDC0461401002070B50C000E25495F3C
:1020300000F0C6FA002803DB636D1B18636570BDF2
:10204000A389024A1340A381F9E7C046FFEFFFFFCF
:10205000F8B51F008B8905000C001600DB0505D5BF
:102060000E23C95E0022022300F0D2F9A389054A9B
:1020700028001340A38132000E23E15E3B0000F0F4
:1020800075F8F8BDFFEFFFFF70B50C000E25495F36
:1020900000F0BEF9A389421C03D1054A1340A38175
:1020A00070BD802252011343A3816065F8E7C046EA
:1020B000FFEFFFFF10B50E23C95E00F0E1F810BD81
:1020C000F8B505000E001400002804D08369002B29
:1020D00001D1FFF7D7FB224B9C422DD16C68A3693D
:1020E000A360A3891B0731D52369002B2ED0236859
:1020F0002269F7B2981A6369F6B2984205DB2100AB
:10210000280000F059F9002826D1A3680130013BCE
:10211000A36023685A1C22601F706369984204D030
:10212000A389DB071AD50A2E18D12100280000F058
:1021300043F9002812D00FE00A4B9C4201D1AC6851
:10214000CDE7094B9C42CAD1EC68C8E721002800C2
:1021500000F020F80028CAD0012676423000F8BDF1
:1021600020270008402700080027000870B5050058
:10217000080011000022064C22601A00FFF7D8F96F
:10218000431C03D12368002B00D02B6070BDC046D8
:1021900014010020364B70B51D6806000C00002DA0
:1021A00005D0AB69002B02D12800FFF76BFB314B48
:1021B0009C420FD16C680C23E25E93B219072DD4B8
:1021C000D90611D409230120336037331343A38187
:1021D000404270BD284B9C4201D1AC68EBE7274BD5
:1021E0009C42E8D1EC68E6E75B0713D5616B0029F8
:1021F00008D023004433994202D0300000F096F911
:10220000002363632422A3899343A3810023636093
:10221000236923600823A2891343A3812369002B28
:102220000BD1A0218022A389890092000B40934208
:1022300003D02100300000F027F90123A2891340C8
:1022400011D00023A36063695B42A361002023696E
:102250008342BED10C23E25E1306BAD5402313435A
:10226000A3810138B5E7920700D46369A360EDE765
:10227000040000202027000840270008002700084D
:10228000002370B5064C05000800236000F0D0F96B
:10229000431C03D12368002B00D02B6070BDC046C7
:1022A00014010020F7B58A8905000C00130760D4DB
:1022B0004B68002B04DC0B6C002B01DC0020FEBD06
:1022C000E76A002FFAD000232E682B6080235B0181
:1022D0001A4034D0606DA3895B0706D56368C01AC5
:1022E000636B002B01D0236CC01A0200216A00230B
:1022F0002800E76AB847A189431C06D12B681D2B2B
:1023000031D82C4ADA40D3072DD5002363602369E6
:102310002360CB0405D5431C02D12B68002B00D1D0
:102320006065616B2E600029C8D023004433994258
:1023300002D0280000F0FAF800206063BFE7012314
:10234000216A2800B847431CC5D12B68002BC2D096
:102350001D2B01D0162B01D12E60AFE74023A2899F
:102360001343A381ABE740230B430120A3814042E9
:10237000A5E70F69002FA1D00B680F60DB1B01934D
:102380000023920700D14B69A360019B002B00DC66
:1023900094E7019B3A00216A2800A66AB04700280A
:1023A00003DC4023A2891343DFE7019B3F181B1A7C
:1023B0000193EAE7010040200B6970B505000C00AD
:1023C000002B01D1002070BD002804D08369002BB0
:1023D00001D1FFF757FA0B4B9C4209D16C680C22D4
:1023E000A35E002BEED021002800FFF75BFFEAE799
:1023F000054B9C4201D1AC68F1E7044B9C42EED105
:10240000EC68ECE7202700084027000800270008B8
:1024100070B50500080011000022064C22601A0069
:1024200000F01EF9431C03D12368002B00D02B6061
:1024300070BDC0461401002070B50E001D000E23B3
:10244000C95E90B01400002907DA00232B60B3891D
:102450001B0611D48023DB000FE001AA00F0C4F8B2
:102460000028F2DBF022029B12021340054A9B185F
:102470005A4253412B60EDE740230020236010B007
:1024800070BDC04600E0FFFFF7B502268B8905004E
:102490000C00334206D0230047332360236101231D
:1024A0006361F7BD01AB6A46FFF7C6FF00990700FD
:1024B0002800FFF77DFA002808D10C22A35E9A05B8
:1024C000EFD4032293431E43A681E4E70F4BAB6294
:1024D0008023A28920601343A381009B2061636154
:1024E000019B002B0DD00E23E15E280000F08EF83A
:1024F000002806D00322A38993431A000123134323
:10250000A381A0893843A081CBE7C0460118000809
:10251000C9B28218904201D10020704703788B42E3
:10252000FBD00130F6E770477047000070B505003A
:10253000002910D00C1F2368002B00DAE4182800B3
:10254000FFF7F1FF1D4A1368002B05D1636014608B
:102550002800FFF7E9FF70BDA34209D92168601880
:102560008342F3D118685B6841182160EEE71300DD
:102570005A68002A01D0A242F9D919685818A04215
:102580000BD120680918581819608242E0D11068F0
:102590005268411819605A60DAE7A04202D90C2348
:1025A0002B60D5E721686018824203D11068526819
:1025B0004118216062605C60CAE7C0468400002068
:1025C00070B50500080011000022064C22601A00B8
:1025D00000F04EF8431C03D12368002B00D02B6081
:1025E00070BDC04614010020002370B5064C0500E4
:1025F00008001100236000F023F8431C03D1236876
:10260000002B00D02B6070BD14010020002370B59A
:10261000064C05000800236000F01AF8431C03D1A3
:102620002368002B00D02B6070BDC0461401002031
:1026300058220120014B40421A60704714010020CB
:1026400058220120014B40421A60704714010020BB
:102650005822024B00201A607047C0461401002027
:1026600058220120014B40421A607047140100209B
:1026700058220120014B40421A607047140100208B
:10268000054B02001968002901D104491960186836
:1026900082181A607047C0468C0000201801002084
:1026A000F8B5C046F8BC08BC9E467047F8B5C046B1
:0826B000F8BC08BC9E4670470F
:1026B800010402080010101004101010021010106D
:1026C8000848656C6C6F2C20576F726C642120254C
:1026D80036640D0A0000000000000000000102033B
:1026E80004060708090000000001020304030406A9
:1026F800080C101820300000000000000000000046
:1027080000000000000000000000000000000000C1
:1027180000000000000000000000000000000000B1
:1027280000000000000000000000000000000000A1
:102738000000000000000000000000000000000091
:102748000000000000000000000000000000000081
:10275800000000000000000008000020232D302B9E
:102768002000686C4C00656667454647003031328A
:1027780033343536373839414243444546003031E1
:102788003233343536373839616263646566000040
:08279800F0DAFF7F01000000F0
:0427A000E900000844
:0427A400C100000868
:1027A800000020000800002000000000202700088A
:1027B8004027000800270008000000000000000073
:1027C8000000000000000000000000000000000001
:1027D80000000000000000000000000000000000F1
:1027E80000000000000000000000000000000000E1
:1027F80000000000000000000000000000000000D1
:082808000000000000000000C8
:0400000508001721B7
:00000001FF
